:0300000002001EDD
:0C001E00787FE4F6D8FD75810D020065C6
:0C010D00020A0000020C000002080000C2
:1000D400120006D2A8D288E5096401450870F81216
:0F00E4000100D291D2A0E4F508F509D28E80E890
:030003000200F305
:0D00F300C28ED2A0C29175080075090132BD
:10000600D2AFD2AB758910758D4B758BFDD28ED262
:0400160091D2A022C1
:03001B000200AA36
:1000AA00C0E0C0D0050BE50B7002050AD3940AE53F
:1000BA000A648094804008B2A0750A00750B007526
:0A00CA008D4B758BFDD0D0D0E032D5
:0C0100007F9B7EB27D52DDFEDEFADFF652
:01010C0022D0
:10002A000200D4E493A3F8E493A34003F68001F218
:10003A0008DFF48029E493A3F85407240CC8C333D7
:10004A00C4540F4420C8834004F456800146F6DFA6
:10005A00E4800B010204081020408090010DE47E28
:10006A00019360BCA3FF543F30E509541FFEE4939B
:10007A00A360010ECF54C025E060A840B8E493A362
:10008A00FAE493A3F8E493A3C8C582C8CAC583CA8D
:10009A00F0A3C8C582C8CAC583CADFE9DEE780BE45
:0101190000E5
:00000001FF
