:03000000020003F8
:0C000300787FE4F6D8FD75811602004AF3
:10010F00C0F9A4B0999282F880908883C6A1868E98
:01011F00FFE0
:0A013D00080800010203040506078C
:0F0120007B007A0079087D087C0012008F80F147
:0A008F008B108A1189128C138D1456
:1000990075A001751601E4F515C3E5159514E51369
:1000A9006480F87480985030AB10AA11A912851594
:1000B900827583001200E290010F93F5807F0A1286
:1000C900012FAF167801EF08800123D8FDF516F549
:0800D900A07580FF051580C130
:0100E10022FC
:0D012F00EFD3940040077E6EDEFE1F80F3CC
:01013C0022A0
:10000F00020120E493A3F8E493A34003F68001F2E6
:10001F0008DFF48029E493A3F85407240CC8C333F2
:10002F00C4540F4420C8834004F456800146F6DFC1
:10003F00E4800B010204081020408090013DE47E13
:10004F00019360BCA3FF543F30E509541FFEE493B6
:10005F00A360010ECF54C025E060A840B8E493A37D
:10006F00FAE493A3F8E493A3C8C582C8CAC583CAA8
:10007F00F0A3C8C582C8CAC583CADFE9DEE780BE60
:0101470000B7
:1000E200BB010CE58229F582E5833AF583E02250D3
:1000F20006E92582F8E622BBFE06E92582F8E2221D
:0D010200E58229F582E5833AF583E4932236
:00000001FF
