:1001A400C0F9A4B0999282F880908883C6A1868E03
:0101B400FF4B
:0601D300010910010810F3
:1001B5001200038F087B007A00790812018F80F006
:1000030075B0FEE5B064FE60307F0A1201C5E5B04D
:1000130064FE6025AFB0EF2482601B24C06012240D
:10002300E0600924F07012E4F509800D7509018080
:1000330008750902800375090375B0FDE5B064FD19
:1000430060307F0A1201C5E5B064FD6025AFB0EFF3
:100053002483601B24C0601224E0600924F0701222
:10006300750904800D7509058008750906800375F7
:10007300090775B0FBE5B064FB60307F0A1201C568
:10008300E5B064FB6025AFB0EF2485601B24C0603E
:100093001224E0600924F07012750908800D7509B7
:1000A30009800875090A800375090B75B0F7E5B077
:1000B30064F760307F0A1201C5E5B064F76025AFCD
:1000C300B0EF2489601B24C0601224E0600924F08F
:1000D300701275090C800D75090D800875090E8065
:0700E3000375090FAF0922AC
:10018F0075A0011201769001A493F5807F051201ED
:05019F00C57580FF2280
:0D01C500EFD3940040077E6EDEFE1F80F336
:0101D200220A
:030000000200EA11
:0C00EA00787FE4F6D8FD75810902013131
:10017600BB010689828A83E0225002E722BBFE0287
:09018600E32289828A83E49322BA
:1000F6000201B5E493A3F8E493A34003F68001F26A
:1001060008DFF48029E493A3F85407240CC8C3330A
:10011600C4540F4420C8834004F456800146F6DFD9
:10012600E4800B01020408102040809001D3E47E95
:10013600019360BCA3FF543F30E509541FFEE493CE
:10014600A360010ECF54C025E060A840B8E493A395
:10015600FAE493A3F8E493A3C8C582C8CAC583CAC0
:10016600F0A3C8C582C8CAC583CADFE9DEE780BE78
:0101D9000025
:00000001FF
