:100A4400080F120F0A1F02020F090F090F091100E4
:080A54001F11111F11111F00F9
:1009EA00010800011D010C09416C61726D20436C04
:1009FA006F636B00071656592309010712011E205F
:1009C800E4F5217520187F40120A94AF201520EF16
:1009D800600FAF210521EF900A4493FF120AA4800B
:0109E800EA24
:0109E90022EB
:10078300E4FDFF120A72E518C4540F4430FF120A45
:10079300A4E518540F4430FF120AA47F3A120AA4A6
:1007A300E517C4540F4430FF120AA4E517540F444D
:1007B30030FF120AA47F3A120AA4E516C4540F4468
:1007C30030FF120AA4E516540F4430FF120AA4E5C1
:1007D3001B4430FB7D0DE4FFFE120ADC7D057F0127
:1007E300120A72E51EC4540F4430FF120AA4E51E18
:1007F300540F4430FF120AA4E51CC4540F4430FFC5
:10080300120AA4E51C540F4430FF120AA4E4FF1299
:100813000AA4E51AC4540F4430FF120AA4E51A547B
:100823000F4430FF120AA47F01120AA4E519C4542D
:100833000F4430FF120AA4E519540F4430FF120A83
:06084300A47F02020AA4DA
:0D0AC300EFD3940040077E6EDEFE1F80F32F
:010AD0002203
:10069C007590FEE59064EF60307F0A120AC3E59016
:1006AC0064FE6025AF90EF2482601B24C06012248E
:1006BC00E0600924F07012E4F515800D75150180C9
:1006CC000875150280037515037590FDE59064FDA2
:1006DC0060307F0A120AC3E59064FD6025AF90EF8D
:1006EC002483601B24C0601224E0600924F0701283
:1006FC00751504800D751505800875150680037534
:10070C0015077590FBE59064FB60307F0A120AC3F5
:10071C00E59064FB6025AF90EF2485601B24C060DE
:10072C001224E0600924F07012751508800D7515FF
:10073C0009800875150A800375150B7590F7E590FF
:10074C0064F760307F0A120AC3E59064F76025AF46
:10075C0090EF2489601B24C0601224E0600924F00F
:10076C00701275150C800D75150D800875150E80A1
:07077C000375150FAF1522F4
:1008D5007B007A007909E4FDFF12097B7D097F0120
:1008E500120A72E508C4540F4430FF120AA4E50841
:1008F500540F4430FF120AA47F3A120AA4E51DC41E
:10090500540F4430FF120AA4E51D540F4430FF0272
:020915000AA432
:10000300C2B5120A2B1209C87B007A0079161209AD
:10001300521207837B007A0079161209A312069CF9
:100023008F1FE51F640F60030205117F0E120A94F0
:100033007F02120A94E51FB40F0712069C8F1F80DC
:10004300F4E51FC3940A400DE51F940E50071206F2
:100053009C8F1F80ECE51FC394004024E51FD394BD
:1000630009501DE51FC454F0FFE518540F4FF51850
:10007300120783E4FDFF120A7212069C8F1F80D5BC
:10008300E51F640E600712069C8F1F80F37F141216
:100093000A94E51FB40E0712069C8F1F80F4E51F18
:1000A300C3940A400DE51F940E500712069C8F1F40
:1000B30080ECE51FC394004020E51FD39409501939
:1000C300E51854F0451FF5181207837D01E4FF126C
:1000D3000A7212069C8F1F80D9E51F640E600712F7
:1000E300069C8F1F80F37F14120A947F14120A94C4
:1000F300E51FB40E0712069C8F1F80F4E51FC394FF
:100103000A400DE51F940E500712069C8F1F80ECCA
:10011300E51FC394004025E51FD39409501EE51F36
:10012300C454F0FFE517540F4FF5171207837D03EF
:10013300E4FF120A7212069C8F1F80D4E51F640E1F
:10014300600712069C8F1F80F37F14120A94E51F29
:10015300B40E0712069C8F1F80F4E51FC3940A4058
:100163000DE51F940E500712069C8F1F80ECE51FB0
:10017300C394004020E51FD394095019E51754F0A8
:10018300451FF5171207837D04E4FF120A72120656
:100193009C8F1F80D9E51F640E600712069C8F1F7A
:1001A30080F37F14120A947F14120A94E51FB40E8D
:1001B3000712069C8F1F80F4E51FC3940A400DE5C8
:1001C3001F940E500712069C8F1F80ECE51FC394EB
:1001D300004025E51FD39409501EE51FC454F0FFCA
:1001E300E516540F4FF5161207837D06E4FF120A36
:1001F3007212069C8F1F80D4E51F640E60071206DF
:100203009C8F1F80F37F14120A94E51FB40E07120C
:10021300069C8F1F80F4E51FC3940A400DE51F94CD
:100223000E500712069C8F1F80ECE51FC3940040FD
:1002330020E51FD394095019E51654F0451FF51610
:100243001207837D07E4FF120A7212069C8F1F8038
:10025300D9E51F640E600712069C8F1F80F37F147D
:10026300120A947F14120A947F14120A947F1412B0
:100273000A947F14120A947F14120A94E51FB40E91
:100283000712069C8F1F80F4E51FC3940A400DE5F7
:100293001F940E500712069C8F1F80ECE51FC3941A
:1002A30000401BE51FD394075014851F1B120783BF
:1002B3007D0DE4FF120A7212069C8F1F80DEE51F7C
:1002C300640E600712069C8F1F80F37D067F011268
:1002D3000A727F14120A94E51FB40E0712069C8F4C
:1002E3001F80F4E51FC3940A400DE51F940E5007C9
:1002F30012069C8F1F80ECE51FC394004025E51F69
:10030300D39409501EE51FC454F0FFE51C540F4F4E
:10031300F51C1207837D077F01120A7212069C8F58
:100323001F80D4E51F640E600712069C8F1F80F3A5
:100333007F14120A94E51FB40E0712069C8F1F80C8
:10034300F4E51FC3940A400DE51F940E50071206EF
:100353009C8F1F80ECE51FC394004020E51FD394BE
:10036300095019E51C54F0451FF51C1207837D083D
:100373007F01120A7212069C8F1F80D9E51F640E3B
:10038300600712069C8F1F80F37F14120A947F1458
:10039300120A94E51FB40E0712069C8F1F80F4E522
:1003A3001FC3940A400DE51F940E500712069C8F3D
:1003B3001F80ECE51FC394004025E51FD39409502B
:1003C3001EE51FC454F0FFE51A540F4FF51A120728
:1003D300837D0A7F01120A7212069C8F1F80D4E567
:1003E3001F640E600712069C8F1F80F37F14120A8E
:1003F30094E51FB40E0712069C8F1F80F4E51FC3FC
:10040300940A400DE51F940E500712069C8F1F801F
:10041300ECE51FC394004020E51FD394095019E570
:100423001A54F0451FF51A1207837D0B7F01120A38
:100433007212069C8F1F80D9E51F640E6007120697
:100443009C8F1F80F37F14120A947F14120A94E581
:100453001FB40E0712069C8F1F80F4E51FC3940A76
:10046300400DE51F940E500712069C8F1F80ECE58C
:100473001FC394004025E51FD39409501EE51FC4F4
:1004830054F0FFE519540F4FF5191207837D0D7FC3
:1004930001120A7212069C8F1F80D4E51F640E603E
:1004A3000712069C8F1F80F37F14120A94E51FB472
:1004B3000E0712069C8F1F80F4E51FC3940A400D9C
:1004C300E51F940E500712069C8F1F80ECE51FC397
:1004D30094004020E51FD394095019E51954F045C1
:1004E3001FF5191207837D0E7F01120A7212069CF3
:1004F3008F1F80D9E51FB40F0712069C8F1F80F44E
:100503007B007A0079161209527F0C120A94E51FB8
:10051300640C600302067E7F01120A941208D57FE1
:100523000C120A9412069C8F1FE51F640D700302C0
:10053300066C12069C8F1FE51FB40FED7D097F012A
:10054300120A727F0E120A94E51FB40F0712069C5B
:100553008F1F80F47D097F01120A72E51FC3940087
:100563004025E51FD39409501EE51FC454F0FFE551
:1005730008540F4FF5081208D57D097F01120A723E
:1005830012069C8F1F80D4E51F640E600712069C21
:100593008F1F80F37D0A7F01120A72E51FB40E07D5
:1005A30012069C8F1F80F4E51FC394004020E51FB3
:1005B300D394095019E50854F0451FF5081208D5DE
:1005C3007D0A7F01120A7212069C8F1F80D9E51FD4
:1005D300640E600712069C8F1F80F37D0C7F01124F
:1005E3000A72E51FB40E0712069C8F1F80F4E51FE5
:1005F300C394004025E51FD39409501EE51FC4543E
:10060300F0FFE51D540F4FF51D1208D57D0C7F013A
:10061300120A7212069C8F1F80D4E51F640E6007B6
:1006230012069C8F1F80F37D0D7F01120A72E51F56
:10063300B40E0712069C8F1F80F4E51FC39400407D
:1006430020E51FD394095019E51D54F0451FF51DEE
:100653001208D57D0D7F01120A7212069C8F1F802E
:10066300D97F0C120A9402052CE51F640D60071252
:10067300069C8F1F80F37F01120A94E518B5080FBB
:10068300E517B51D0AE51F640B6004D2B58002C2ED
:09069300B57F88120AE60200148A
:070AE600AE071FEE70FA22BB
:060A5C00C2A0C2A2D2A05C
:0F0A6200EF7F08A2E092A1D2A2C2A2C313DFF4D9
:010A71002262
:0F0A84007F08C313A2A192E7D2A2C2A2DFF4FFA0
:010A93002240
:0F0AB400AE05120A5CAF06120A62D2A2C2A022DD
:0A0AD100120A5C120A84D2A2C2A02D
:010ADB0022F8
:10095200752080E4FD7F8E120AB47C07120917FD10
:10096200AF20120AB4740129F9E43AFA05200520ED
:09097200DCEA7D807F8E020AB4EC
:0609A3008B208A2189224D
:1009A9007E81E4FDAF06120AD1AB20AA21A9228DCE
:0E09B90082758300EF1209300E0E0DBD07E6A9
:0109C700220D
:100A0B007D107C27C2A3D2A4D2A57580FF7580FF71
:0F0A1B00AF80ED1D70011C144C6004EF20E7F15B
:010A2A0022A9
:100A9400AE07120A0BC2A3C2A4D2A58E80C2A5229D
:100AA400AE07120A0BD2A3C2A4D2A58E80C2A5227D
:100A7200EF7006ED2480FB8004ED24C0FBAF03027F
:020A82000A94D4
:0A0ADC00AA03120A72AF02020AA474
:10097B008B208A218922120A72AB20AA21A922126A
:10098B000917FF6012F580120AA474012522F522C3
:08099B00E43521F52180E22280
:100A2B007F38120A947F0E120A947F80120A947FE9
:090A3B0018120A947F01020A94CA
:03000000020849AA
:0C084900787FE4F6D8FD7581220208904B
:10091700BB010689828A83E0225002E722BBFE02DE
:09092700E32289828A83E4932211
:10093000F8BB010DE58229F582E5833AF583E8F0FD
:10094000225006E92582C8F622BBFE05E92582C8A9
:02095000F22291
:10085500020003E493A3F8E493A34003F68001F2B6
:1008650008DFF48029E493A3F85407240CC8C333A4
:10087500C4540F4420C8834004F456800146F6DF73
:10088500E4800B01020408102040809009EAE47E10
:10089500019360BCA3FF543F30E509541FFEE49368
:1008A500A360010ECF54C025E060A840B8E493A32F
:1008B500FAE493A3F8E493A3C8C582C8CAC583CA5A
:1008C500F0A3C8C582C8CAC583CADFE9DEE780BE12
:010A0A0000EB
:00000001FF
