:10000E0000000000000000000000000000000000E2
:10001E0000000000000000000000000000000000D2
:10002E00000000000FFC0FFC000400040004FFFCA5
:10003E00FFFC0004000400040FFE0FFE0000000091
:10004E0000001004118C139816B01CA2F883F7FF51
:10005E0017FE108010A010B01098108C1004000025
:10006E002410247025E07FFFFFFFC58044A04420AC
:10007E00772033200020FFFFFFFF004000400040AC
:10008E00082008220863FFFFFFFE098119011103F2
:10009E0011C211F6FF3CFF1C117611E31181100104
:1000AE000401040104030406040C043804F0FFC028
:1000BE00FFC004F00438040C040604030401040118
:1000CE0002200E208C20E920692009228923E97F55
:1000DE00697E09E019A03920E820CA200E200C20E4
:1000EE000000000000000000000000000000000002
:1000FE0000000000000000000000000000000000F2
:10010E0000000000000000000000000000000000E1
:10011E0000000000000000000000000000000000D1
:10012E00FEFFFEFFFEFFFEFFDEF7DEF7DEF7DEF779
:10013E00DEF7DEF7DEF7DEF7DEF7C007FFF7FFFFCD
:10014E00FDFFFDFFFDFF8003FBFFF6FFEEFFDEFF71
:10015E00C007FEFFF6DFEEEFDEF7BEFBFAFFFDFF98
:10016E00F7EFE2EF0F6FEFAFEFEF02EFEF6FC7AF0B
:10017E00CBEFAFEFAC016FEFEFEFEFEFEFEFEFEF96
:10018E00FFDFEFDFEFDFEC0103DFEFDFEFDFEA038F
:10019E00E77BCF772FB7EFAFEFDFEFAFAE77D9F9C2
:1001AE00FEFFFEFFFEFFFEFFFEFF0001FEFFFEFF55
:1001BE00FD7FFD7FFBBFFBBFF7DFEFEFDFF73FF903
:1001CE00FFFFDDEFEEEFEEDF8001BFFD7FFBE01FF7
:1001DE00FFBFFE7F0001FEFFFEFFFEFFFAFFFDFFE9
:1001EE0000000000001A001C0000000000000000CB
:1001FE0000000000000000000000000000000000F1
:10073500020A000102080000022100020215000160
:1007450008197FBFDFEFF7FBFDFE080C8040201086
:040755000804020191
:10070700E4FDFCC3ED9FEC9E5023E4FBFA0BBB001A
:10071700010AEB64C84A70F5E4FAFB0BBB00010A57
:0D072700EB64664A70F50DBD00010C80D634
:0107340022A2
:100651001207781207A4120790E516640145157078
:100661000512052580EDE516640245157005120297
:10067100E080E0E51664034515700512020E80D393
:10068100E5166404451570051203AA80C6E51664D3
:0A06910005451570BE12047480B90F
:10052500752100752202E50925E0F518E50833F582
:1005350017C3E51894E0E51794004005E4F508F5C0
:1005450009E4F523C2917FFF1206B974192523F832
:10055500E6FF1206B912069B75F002E523A42518DD
:10056500F582E435F0F583E582240EF582E58334E2
:10057500001206B41207B70523E523C3940840C447
:10058500752308C29174112523F8E6FF1206B97F79
:10059500FF1206B912069B75F002E523A42518F58E
:1005A50082E435F0F583E582240EF582E583340097
:0F05B5001206B41207B70523E523C3941040C400
:0105C4002214
:1002E000752100752202E50925E0F518E50833F5CA
:1002F00017C3E51894E0E51794004005E4F508F508
:1003000009E4F523C2917FFF1206B974192523F879
:10031000E6FF1206B9E52375F002A4C39518FFE5C0
:10032000F09517FE74EF2FF58274003E1206B4E5C7
:100330002375F002A4C39518FFE5F09517FE74EE3F
:100340002FF58274003E1206B41207B70523E52389
:10035000C3940840AF752308C29174112523F8E6B1
:10036000FF1206B97FFF1206B9E52375F002A4C398
:100370009518FFE5F09517FE74EF2FF58274003E97
:100380001206B4E52375F002A4C39518FFE5F095B5
:1003900017FE74EE2FF58274003E1206B41207B7F2
:0903A0000523E523C3941040AFCE
:0103A9002231
:10020E00752100752202E50925E0F518E50833F59C
:10021E0017C3E51894E0E51794004005E4F508F5DA
:10022E0009E4F523C29175F002E523A42518F582A1
:10023E00E435F0F583E582240FF582E5833401126F
:10024E0006B475F002E523A42518F582E435F0F521
:10025E0083E582240EF582E58334011206B4E4FFB1
:10026E001206B9740C2523F8E6FF1206B91207B769
:10027E000523E523C3940840AB752308C29175F09E
:10028E0002E523A42518F582E435F0F583E58224F2
:10029E000FF582E58334011206B475F002E523A44E
:1002AE002518F582E435F0F583E582240EF582E516
:1002BE008334011206B474042523F8E6FF1206B93E
:1002CE00E4FF1206B91207B70523E523C3941040C5
:0102DE00AB74
:0102DF0022FC
:1003AA00752100752202E50925E0F518E50833F5FF
:1003BA0017C3E51894E0E51794004005E4F508F53D
:1003CA0009E4F523C291E52375F002A4C39518FF49
:1003DA00E5F09517FE74EF2FF58274013E1206B40C
:1003EA00E52375F002A4C39518FFE5F09517FE748E
:1003FA00EE2FF58274013E1206B4E4FF1206B974B8
:10040A000C2523F8E6FF1206B91207B70523E523E0
:10041A00C3940840AF752308C291E52375F002A47E
:10042A00C39518FFE5F09517FE74EF2FF582740156
:10043A003E1206B4E52375F002A4C39518FFE5F051
:10044A009517FE74EE2FF58274013E1206B47404F9
:10045A002523F8E6FF1206B9E4FF1206B91207B718
:09046A000523E523C3941040AF03
:010473002266
:10047400752100752214E509AE087805C333CE331F
:10048400CED8F92420F518E43EF517C3E51894E016
:10049400E51794004005E4F508F509E4F523C29155
:1004A4007FFF1206B974192523F8E6FF1206B9E591
:1004B4002312069D75F002E523A42518F582E43580
:1004C400F0F583E582240EF582E58334001206B448
:1004D4001207B70523E523C3940840C2752308C255
:1004E4009174112523F8E6FF1206B97FFF1206B9AD
:1004F40075F002E5231206A075F002E523A4251881
:10050400F582E435F0F583E582240EF582E5833443
:10051400001206B41207B70523E523C3941040BFA5
:0105240022B4
:10077800758901D28C758C3C758AB0D288D28AD2A0
:08078800AFD2A9D2A8D2AA2227
:03000B000206D218
:1006D200C0E0C0D0758C3C758AB00514C3E5149592
:1006E20022E49521401AE50B6401450A700AF514CB
:1006F2000509E50970020508E50B450A7002F514C3
:05070200D0D0D0E03270
:0300030002075A97
:10075A00C0E00516E5167002051575080075090052
:0E076A00640645157005F515751601D0E032D0
:1007900020A0107F0A7E0012070720A006750A001D
:0407A000750B0122B2
:1007A40020A10F7F0A7E0012070720A105E4F50AA5
:0307B400F50B2220
:10069B00E52375F002A42518F582E435F0F583E522
:0E06AB0082240FF582E5833400F583E493FF8B
:1006B900E4FEC292EF30E004D2908002C290D2925E
:0806C900EFC313FF0EBE08EAA7
:0106D1002206
:0407B700D2917F0359
:0D07BB00EFD3940040077E6EDEFE1F80F33A
:0107C800220E
:030000000205C531
:0C05C500787FE4F6D8FD75812302060C57
:1005D100020651E493A3F8E493A34003F68001F2E9
:1005E10008DFF48029E493A3F85407240CC8C3332B
:1005F100C4540F4420C8834004F456800146F6DFFA
:10060100E4800B0102040810204080900735E47E4D
:10061100019360BCA3FF543F30E509541FFEE493EE
:10062100A360010ECF54C025E060A840B8E493A3B5
:10063100FAE493A3F8E493A3C8C582C8CAC583CAE0
:10064100F0A3C8C582C8CAC583CADFE9DEE780BE98
:01075900009F
:00000001FF
