:1003CF00C0F9A4B0999282F880908883C6A1868ED6
:0103DF00FF1E
:050003000308000000ED
:100308001203E07590F8C2B4D2B4C2B420B6051294
:10031800037080F8D2B5AF90750B008F0CC2B5ACE6
:100328000BAD0CE41201197B487AE179FA783F1297
:10033800000E1201528E0B8F0C7C007D6412021984
:100348008F0AAE0BAF0C7C007D0A1202197C007D6F
:100358000A1202198D09AE0BAF0C7C007D0A12023D
:08036800198D08120370809B3F
:1003E000758902758C14758A14D28CD2A9D2AF2269
:03000B000203F0FD
:0303F000B2B33273
:060370007B007A00790811
:100376008B0D8A0E890F75A0041201D31203B9756D
:1003860080FF75A002AB0DAA0EA90F900001120105
:10039600EC1203B97580FF75A001AB0DAA0EA90F6B
:1003A6009000021201EC9003CF93547F1203BD75A7
:0303B60080FF22A3
:0803B9009003CF93F5807F0350
:0D03C100EFD3940040077E6EDEFE1F80F338
:0103CE00220C
:10000E00EC4D6011E8497017ED33EC3304600DE4EC
:10001E00FCFFFEFD22E933E8330470F80201BE1244
:10002E00018958046009E4CC248150062850090245
:10003E0001C82840030201C5C0E0EB4A7044B980F4
:10004E0006D0E0FB0201B4EF4E701CBD8008EBFF42
:10005E00EAFEE9FD80EBE98DF0A4FEE5F00200F783
:10006E00E9CDF9EAFEEBFFEF89F0A4FCE5F0CE89CD
:10007E00F0A42EFFE435F0CD89F0A42DFEE435F08A
:10008E008067EF4E7005BD80D780C3EF8BF0A4ACB8
:10009E00F0EE8BF0A42CFCE435F0F8EF8AF0A42CF3
:1000AE00E5F038FCE433CB8DF0A42CFCE5F03BF806
:1000BE00EE8AF0A42CFCE5F038F8E433CF89F0A4F6
:1000CE002CFCE5F038CF3400CE89F0A42FFFE5F0FC
:1000DE003EFEE433C98DF0A42EFEE5F039CD8AF054
:1000EE00A42FFFE5F03EFEE43DFD33D0E0FB5007CC
:1000FE000BBB000F0201C8EC2CFCEF33FFEE33FEFE
:06010E00ED33FD0201A02B
:1001140075F020800E75F010800575F0087D007E66
:10012400007F003392D530D50312026EEC334010B9
:10013400EF33FFEE33FEED33FDEC33FCD5F0ED226F
:0E014400E5F0247EA2D513CC92E7CDCEFF22AB
:10015200EDD2E7CD33EC3392D524814006E4FFFEA5
:10016200FDFC22FCE4CFCECDCC24E0501174FF8004
:10017200EDC3CC13CCCD13CDCE13CECF13CF0470A1
:07018200F030D5DE02026E31
:10018900E9D2E7C933E833F892D5EDD2E7CD33ECBC
:0701990033FC5002B2D52235
:1001A000EC30E7100FBF000C0EBE00080DBD0004C0
:1001B0000BEB6014A2D5EB13FCED92E7FD2274FF6C
:1001C000FCFDFEFF22E480F8A2D574FF13FC7D80C5
:0301D000E480EFD9
:0300000002027C7D
:0C027C00787FE4F6D8FD75810F0202C304
:1001D300BB010689828A83E0225002E722BBFE022A
:0901E300E32289828A83E493225D
:1001EC00BB010CE58229F582E5833AF583E02250C8
:1001FC0006E92582F8E622BBFE06E92582F8E22212
:0D020C00E58229F582E5833AF583E493222B
:10021900BC000BBE0029EF8DF084FFADF022E4CCC9
:10022900F875F008EF2FFFEE33FEEC33FCEE9DEC92
:10023900984005FCEE9DFE0FD5F0E9E4CEFD22EDD8
:10024900F8F5F0EE8420D21CFEADF075F008EF2F22
:10025900FFED33FD4007985006D5F0F222C398FD13
:050269000FD5F0EA22B0
:0E026E00C3E49FFFE49EFEE49DFDE49CFC22A1
:10028800020308E493A3F8E493A34003F68001F281
:1002980008DFF48029E493A3F85407240CC8C33377
:1002A800C4540F4420C8834004F456800146F6DF46
:1002B800E4800B0102040810204080900003E47ED3
:1002C800019360BCA3FF543F30E509541FFEE4933B
:1002D800A360010ECF54C025E060A840B8E493A302
:1002E800FAE493A3F8E493A3C8C582C8CAC583CA2D
:1002F800F0A3C8C582C8CAC583CADFE9DEE780BEE5
:0100080000F7
:00000001FF
