:10016000C0F9A4B0999282F880908883C6A1868E47
:01017000FF8F
:040003000209FFFFF0
:10012B00120171E50875F00A8485F009E50875F090
:0F013B000A84F50A7B007A0079091200E080E45B
:10017100758901758C3C758AB0D2A9D2AFD28C2217
:03000B00020108E7
:10010800C0E0C0D0758C3C758AB0050BE50BB41403
:100118000D750B000508E508B43C03750800D0D040
:03012800D0E032F2
:1000E0008B0C8A0D890E75A00212009A12014A75B6
:1000F00080FF75A001AB0CAA0DA90E9000011200A3
:08010000B312014A7580FF22D1
:08014A0090016093F5807F1421
:0D015200EFD3940040077E6EDEFE1F80F3A9
:01015F00227D
:0300000002000EED
:0C000E00787FE4F6D8FD75810E020055E5
:10009A00BB010689828A83E0225002E722BBFE0264
:0900AA00E32289828A83E4932297
:1000B300BB010CE58229F582E5833AF583E0225002
:1000C30006E92582F8E622BBFE06E92582F8E2224C
:0D00D300E58229F582E5833AF583E4932266
:10001A0002012BE493A3F8E493A34003F68001F2D0
:10002A0008DFF48029E493A3F85407240CC8C333E7
:10003A00C4540F4420C8834004F456800146F6DFB6
:10004A00E4800B0102040810204080900003E47E43
:10005A00019360BCA3FF543F30E509541FFEE493AB
:10006A00A360010ECF54C025E060A840B8E493A372
:10007A00FAE493A3F8E493A3C8C582C8CAC583CA9D
:10008A00F0A3C8C582C8CAC583CADFE9DEE780BE55
:0100070000F8
:00000001FF
