:03000000020508EE
:0C050800787FE4F6D8FD7581250203E23F
:1003E20012030F3000FDC2001204EC7F307E751242
:0703F200051412049880ECD1
:10030F00758921759850E4F58A758C70758DE8752F
:10031F008BE8D2AFD2A9D28CD28ED288D2A81205B6
:08032F001F75B0FF75211922B2
:03000300020006F2
:03000600D20032F3
:03000B000203F9F4
:1003F900C0E0758A00758C70E5216008D52105B2C9
:0704090090752119D0E032CB
:0B051400EF1FAC0670011E4C70F622B9
:10013300C287EFB40C0040030201D2900145F828B6
:10014300287302016902017102017902017D020132
:100153008502018D02019502019D0201A70201B1F1
:100163000201BB0201C57BBC7A007D1080327B5E3D
:100173007A017DBD802A7BBF804A7B9F7A017D3CCB
:1001830080287BEE7A017DA080207BE17A007DC907
:10019300800E7BF47A017DE280067B197A017DF57E
:1001A3007C0080267B317A017D207C01801C7B5F73
:1001B3007A017D327C0180127B5E7A017D607C0155
:1001C30080087B8A7A017D5F7C017F901202E6D2F0
:0201D300872281
:10044C008F1F12045D7F307E75120514AF1F0201E1
:01045C00336C
:10000E00209803020110859922E522B409031204F7
:10001E0010E522B4440312043AE522B4400312045C
:10002E0098E522B4040312047CE522B405031203FE
:10003E00C9E522B443031204B4E522B40103120548
:10004E001FE522B4020312045DE522B40303120479
:10005E006EE522B40603120393E522B407031204DD
:10006E008AE522B408031203AEE522B4410312045A
:10007E0025E522B442031204A6E522B4450312007C
:10008E0009E522B465031204C2E522B44603120444
:10009E00D0E522B447031204DEE522B4480312046D
:1000AE00ECE522B449031204FAE522B4600312020D
:1000BE00BAE522B480057F9012027DE522B4810D4F
:1000CE007F9112027D7511817F01120376E522B4B4
:1000DE0082057F9212027DE52264657023C29830FC
:1000EE0098FDAF99AD07ED7D00FCC2983098FDAF3D
:1000FE0099EF4205E4C298C2877F65120337D28713
:10010E00C29830011F120529E4F522AF100510A880
:10011E0007E6F5993099FDC2990522E522D394029E
:04012E0040E9C201E1
:0101320022AA
:02027D00A907CF
:10027F00C2983098FDAF99AD07ED7D00FCC2983064
:10028F0098FDAF99EF4205C2983098FDAF99AB0733
:10029F00ED7B00FAC2983098FDAF99EF4203E4C2AC
:0A02AF0098C287AF011202E6D28761
:0102B9002222
:0A051F00C2877F011201D5D28722A6
:10045D00C2877F021201D5D2877511027F01020377
:01046D007618
:0E046E00C2877D027C007F031201D9D2872253
:0E047C00C2877D027C007F041201D9D2872244
:1003C900C2877D037C007F051201D9D287AF1285D0
:0903D90011128F117F030203765B
:1002BA00C2877D037C007F051201D9D287AF12E580
:1002CA001233333354F8FEE511C41354074EF512B2
:0C02DA00EFC4135407F5117F03020376F4
:10039300C2877D047C007F061201D9D287E51454FD
:0B03A30003851314F5137F040203769A
:0E048A00C2877D027C007F071201D9D2872233
:1003AE00C2877D047C007F081201D9D287E51454E0
:0B03BE0003851314F5137F040203767F
:10041000C2877D037C007F091201D9D2875313F86C
:050420007F03020376DA
:0E049800C2877D027C007F501201D9D28722DC
:10042500C2877D027C007F511201D9D287751141A7
:050435007F01020376C7
:0E04A600C2877D027C007F521201D9D28722CC
:0E04B400C2877D027C007F531201D9D28722BD
:10043A00C2877D047C007F441201D9D2877F0402DF
:02044A00037637
:0100090022D4
:0E04C200C2877D007C047F65120337D287223B
:0E04D000C2877D027C007F461201D9D28722AE
:0E04DE00C2877D027C007F471201D9D287229F
:0E04EC00C2877D027C007F481201D9D2872290
:0E04FA00C2877D027C007F491201D9D2872281
:020376008F23D3
:10037800120529E4FFAE100510A806E6F599309994
:0A038800FDC2990FEFC3952340EB6F
:010392002248
:07052900750809751011228D
:0401D5007D027C002B
:0401D9008C188D19D8
:1001DD00E4F51A8F0975080AAF080508A807E4F6B3
:1001ED00E51924FFFFE51834FFFE051AC3E51A9F34
:1001FD00EE6480F874809840DF120529E4F51A1238
:10020D000229AE100510A806A607051AC3E51A9512
:0B021D0019E5186480F874809840E434
:0102280022B3
:100337008F098D0A8C0B120529E4F524120229AEC8
:10034700100510A806A6070524E524C3940340EC6E
:010357002283
:1002E6008F09E4F50A8D0B8C0C8B0D8A0EF50F1217
:1002F6000529F525120229AE100510A806A6070540
:0803060025E525D3940740EC26
:01030E0022CC
:08022900AF080508A807E6FF75
:020231008F1B21
:10023300E4F51CF51DC2867F017E00120358AF1C36
:10024300E51BA807088002C313D8FC30E004D2855D
:100253008002C285E51DC3133084064480F51D80EA
:1002630002F51DD2867F017E00120358051CE51C92
:09027300D3940740C0C285AF1D01
:01027C00225F
:10035800C3EF9401EE648094804012E51ED3941498
:0D0368005004051E80F5EF1F70E61E80E3B7
:010375002265
:00000001FF
