:10024F00445331384232302D5A4A515300543A00F8
:02028A00C100B1
:10022C00C2A0C2A2D2A17580FFD2A0002087F1C2C9
:02023C00A022FE
:0E026E0012022CC2A2C2A1D2A08F80C2A02276
:0E027C0012022CD2A2C2A1D2A08F80C2A02258
:10023E00AE07EE30010444C080024480FF12026E0D
:01024E00228D
:0601F8008B0E8A0F891036
:1001FE00E4FEAB0EAA0FA9108E8275830012015A6F
:09020E00FF600612027C0E80E97B
:0102170022C4
:100218007F3812026E7F0612026E7F0C12026E7F0A
:040228000102026E5F
:04025F007B017D059D
:0A026300AE05AC07DCFEDEFADBF6A8
:01026D00226E
:1001D400C201D297C2977B137D017F09120263D2B9
:1001E400977B027F02120263A29792017F0A120296
:0301F4005FA20106
:0101F70022E5
:1001AE00E4F97A08EAD39400748094804015C297DB
:1001BE00E913F9D2973097034301807F0412025F4F
:0501CE001A80E1AF0101
:0101D3002209
:02018700A907C6
:100189007A08EAD39400748094804018C297E913DE
:1001990092977B017D057F03120263D297E9C3130E
:0401A900F91A80DEE1
:0101AD00222F
:10008F00E4F50EFF1201D47FCC1201877F441201D9
:10009F00877B117D5E7FD91202631201D47FCC1250
:1000AF0001877FBE1201871201AE8F0E1201AEEFD4
:1000BF00C4540F640F7004D2008002C200EFC45406
:0900CF00F0FFE50EC4540F4FFFD1
:0100D8002205
:10011A0012008FEF30000DF404FF75F06484242D73
:10012A00F508800875F064842430F508EF75F00A44
:10013A008475F00A84E5F02430F509EF75F00A8435
:0F014A00E5F02430F50A750BDF750C43E4F50D75
:010159002283
:1000D900120218C201E4FF12023E7BFF7A02794F35
:1000E9001201F8D201E4FF12023E7BFF7A02795C29
:1000F9001201F812011AD2017F0712023E7B007A1F
:100109000079081201F87B1D7D077FF412026380D4
:01011900E203
:03000000020003F8
:0C000300787FE4F6D8FD75812002004AE9
:10015A00BB010CE58229F582E5833AF583E022505A
:10016A0006E92582F8E622BBFE06E92582F8E222A4
:0D017A00E58229F582E5833AF583E49322BE
:10000F000200D9E493A3F8E493A34003F68001F22E
:10001F0008DFF48029E493A3F85407240CC8C333F2
:10002F00C4540F4420C8834004F456800146F6DFC1
:10003F00E4800B010204081020408090028AE47EC5
:10004F00019360BCA3FF543F30E509541FFEE493B6
:10005F00A360010ECF54C025E060A840B8E493A37D
:10006F00FAE493A3F8E493A3C8C582C8CAC583CAA8
:10007F00F0A3C8C582C8CAC583CADFE9DEE780BE60
:01028C000071
:00000001FF
