:0E0125000C08010204081020408081422418BA
:10008F00E4F5141201067FE81201100514E514C3FC
:10009F00940840EFE4F514C3740795142408120173
:1000AF000A7FE81201100514E514C3940840E8759F
:1000BF0014081201067FE81201107FE81201107F69
:1000CF00E81201107FE81201100514E514C3940C17
:1000DF0040E075140BE514D3940740A41201067F7A
:1000EF00E81201107FE81201107FE81201107FE87B
:0700FF00120110151480DE50
:0A01060074082514F8E6F5907FE870
:10011000D3EF9400EE9400400B7D6EDDFEEF1F7078
:04012000EF1E80EC62
:0101240022B8
:03000000020003F8
:0C000300787FE4F6D8FD75811402004AF5
:10000F0002008FE493A3F8E493A34003F68001F278
:10001F0008DFF48029E493A3F85407240CC8C333F2
:10002F00C4540F4420C8834004F456800146F6DFC1
:10003F00E4800B0102040810204080900125E47E2B
:10004F00019360BCA3FF543F30E509541FFEE493B6
:10005F00A360010ECF54C025E060A840B8E493A37D
:10006F00FAE493A3F8E493A3C8C582C8CAC583CAA8
:10007F00F0A3C8C582C8CAC583CADFE9DEE780BE60
:0101330000CB
:00000001FF
