:10000300C2A7C2B6E4F508C3E508943274809480AD
:10001300501BD2B685088000C2B67FFA12005B7F00
:10002300FA12005B7FFA12005B050880DAC2B6752C
:100033000832D3E50894007480948040C7D2B68513
:10004300088000C2B67FFA12005B7FFA12005B7F62
:08005300FA12005B150880DAC7
:10005B00EFD394007480948040127E6EEED39400A4
:0C006B007480948040031E80F31F80E42A
:010077002266
:0300000002007883
:0C007800787FE4F6D8FD758108020003D3
:00000001FF
