:0E039B0080828486888A8C81838587898B8DF9
:10028D0008180006030707070C0010084461746185
:10029D0020323020202020202020200010207469C2
:0E02AD006D6520000000000000000000000051
:1000030012012F12033712021E12038C1202BCE5D7
:100013001EC4540F2430F50FE51E540F2430F51081
:1000230075113AE51CC4540F2430F512E51C540F26
:100033002430F51375143AE51BC4540F2430F51519
:10004300E51B540F2430F5167B007A007908E4FD94
:10005300FF1201D9E51AC4540F2430F525E51A54CB
:100063000F2430F52675273AE519C4540F2430F5CB
:1000730028E519540F2430F529752A3AE518C45494
:100083000F2430F52BE518540F2430F52C7B007A20
:100093000079207D05E4FF1201D912033702000F16
:1002E600E4FEEEC3940874809480500FC290EF131E
:0B02F6009291EFC313FFD2900E80E73F
:0103010022D9
:10036500C29200C29000D292001202E6AF051202BC
:04037500E6C2922228
:10025900E4FDC29200C29000D292001202E6E4FFCD
:10026900EFC39408748094805012EDC313FDC290BB
:1002790000309103430580D2900F80E4C29200C2FE
:0302890091AF052D
:01028C00224F
:1002BC007BFF7A0379A2E4FCECC3940774809480EE
:1002CC005017120193FF12025974182CF8A60774D8
:0902DC000129F9E43AFA0C80DF73
:0102E50022F6
:10012F00E4FCECC3940774809480502174182CF86D
:10013F00E6FF75F00A84FEEF75F00A84A6F0EEC4B0
:10014F0054F0FF74182CF8EF26F60C80D5E4FD7FE1
:10015F008E1203657BFF7A03799BE4FCECC3940753
:10016F00748094805017120193FF74182CF8E6FDD9
:10017F00120365740129F9E43AFA0C80DF7D807F60
:04018F008E02036574
:100379008F37120350853780D2A2C2A1C2A0C2A072
:03038900D2A022DD
:04031D00E4FD7F3844
:100321008F37ED6003120350853780C2A2C2A1C28C
:06033100A0C2A0D2A02230
:0D03A900D2A2D2A1C2A0C2A0D2A0AF8022D9
:100350007580FFC2A2D2A1C2A0C2A0D2A0E5802017
:05036000E7FBAF802265
:10021E00E4F580FD7F3812032112038C12031D12A8
:10022E00038C12031D12038C7D017F381203217D76
:10023E00017F081203217D017F011203217D017FC1
:0B024E00061203217D017F0C0203213A
:100302008B3653050153070FED6003430740430744
:0B03120080E4FD120321AF36020379E6
:0A01D9008F308D318B328A33893468
:1001E300E4F53553310153300FAB32AA33A93485CB
:1001F30035827583001201ACFBC394207480948014
:100203004018D3E530940F7480948050DCAD31AF47
:0A021300301203020535053080CFDC
:01021D0022BE
:0E038C007FB07E15EF1FAC0670011E4C70F6A0
:01039A002240
:100337007D05AC051DEC60107E1C7F65EF1FAA06CE
:0803470070011E4A60EC80F415
:01034F00228B
:030000000200A358
:0C00A300787FE4F6D8FD7581370200EA92
:10019300BB010689828A83E0225002E722BBFE026A
:0901A300E32289828A83E493229D
:1001AC00BB010CE58229F582E5833AF583E0225008
:1001BC0006E92582F8E622BBFE06E92582F8E22252
:0D01CC00E58229F582E5833AF583E493226C
:1000AF00020003E493A3F8E493A34003F68001F264
:1000BF0008DFF48029E493A3F85407240CC8C33352
:1000CF00C4540F4420C8834004F456800146F6DF21
:1000DF00E4800B010204081020408090028DE47E22
:1000EF00019360BCA3FF543F30E509541FFEE49316
:1000FF00A360010ECF54C025E060A840B8E493A3DD
:10010F00FAE493A3F8E493A3C8C582C8CAC583CA07
:10011F00F0A3C8C582C8CAC583CADFE9DEE780BEBF
:0102BB000042
:00000001FF
