:0B00DC004800000102040810204080D2
:10008F00E4900008F0900008E0FFC3940850F1746A
:10009F00002FF582E43400F583E0F5907FFA12002B
:0900AF00B8900008E004F080DCC8
:1000B800900009EFF0900009E0D394004015A37474
:1000C8006EF090000AE014F0E070F7900009E01478
:0300D800F080E2D3
:0100DB002202
:03000000020003F8
:0C000300787FE4F6D8FD75810702004A02
:10000F0002008FE493A3F8E493A34003F68001F278
:10001F0008DFF48029E493A3F85407240CC8C333F2
:10002F00C4540F4420C8834004F456800146F6DFC1
:10003F00E4800B01020408102040809000DCE47E75
:10004F00019360BCA3FF543F30E509541FFEE493B6
:10005F00A360010ECF54C025E060A840B8E493A37D
:10006F00FAE493A3F8E493A3C8C582C8CAC583CAA8
:10007F00F0A3C8C582C8CAC583CADFE9DEE780BE60
:0100E7000018
:00000001FF
