:08014E000102040810204080AA
:10000300120144E4F508E50804FFE50890014E9366
:10001300FD1200D27F6412012A0508E508C3940883
:1000230040E4E4F508E50804FF1200A78F807FFA97
:1000330012012A7FFA12012A7FFA12012A0508E522
:0800430008C3940840DF80DAD5
:0A014400D295120156D29402015622
:0F010C00D295120156D294120156C29502015695
:0F011B00C295120156D294120156D29502015686
:1000F400D29412015630950BE50BC394FA500405C3
:080104000B80F2C294020156C7
:10007A008F0CE4F50BE50C25E0F50CC29412015641
:10008A009295120156D294120156050BE50BC394B0
:0D009A000840E2C294120156D295020156B0
:10004B00C294120156D295120156E4F50BD29412BA
:10005B000156E50C25E0FFA295E4334FF50CC29455
:0E006B00120156050BE50BC3940840E1AF0CE3
:010079002264
:1000D2008F098D0A12010C7FA012007A1200F4AF70
:1000E2000912007A1200F4AF0A12007A1200F40226
:0200F200011BF0
:0200A7008F09BF
:1000A90012010C7FA012007A1200F4AF0912007A33
:1000B9001200F412010C7FA112007A1200F412004E
:0800C9004B8F0A12011BAF0A64
:0100D100220C
:010156002286
:0D012A00EFD3940040077E6EDEFE1F80F3D1
:0101370022A5
:03000000020138C2
:0C013800787FE4F6D8FD75810C0200030E
:00000001FF
