:10011700C0F9A4B0999282F880908883C6A1868E90
:01012700FFD8
:03014600010908A4
:1001280012008F8F097B007A00790912010280F092
:10008F00E5B0F460527F05120138E5B0F46048AF77
:10009F00B0EF2481603E24C0603524E0602C24F052
:1000AF00602324F8601A24FC601124FE6008147089
:1000BF0026E4F5088021750801801C750802801759
:1000CF007508038012750804800D75080580087582
:0900DF0008068003750807AF084C
:0100E80022F5
:1001020075A0011200E990011793F5807F05120195
:05011200387580FF229A
:0D013800EFD3940040077E6EDEFE1F80F3C3
:010145002297
:03000000020003F8
:0C000300787FE4F6D8FD75810902004A00
:1000E900BB010689828A83E0225002E722BBFE0215
:0900F900E32289828A83E4932248
:10000F00020128E493A3F8E493A34003F68001F2DE
:10001F0008DFF48029E493A3F85407240CC8C333F2
:10002F00C4540F4420C8834004F456800146F6DFC1
:10003F00E4800B0102040810204080900146E47E0A
:10004F00019360BCA3FF543F30E509541FFEE493B6
:10005F00A360010ECF54C025E060A840B8E493A37D
:10006F00FAE493A3F8E493A3C8C582C8CAC583CAA8
:10007F00F0A3C8C582C8CAC583CADFE9DEE780BE60
:0101490000B5
:00000001FF
