:030000000200B249
:0C00B200787FE4F6D8FD7581200200F98B
:10031B00C0F9A4B0999282F880908883C6A1868E8A
:04032B0001020408BF
:0B000E00010B00010A14010C1EC1854B
:06030700E493F5A07F0263
:0D030D00EFD3940040077E78DEFE1F80F3E2
:01031A0022C0
:1002EE00758901758CF8758A30758DF8758B30D2DD
:0902FE00A9D2ABD2AFE4F58022D5
:1002A50020B6237F0A12030D20B61B30B6FDD28C73
:1002B500850A0FE4F50DF50ED200D205D204F50B33
:0702C500D2B7D2B5C201223D
:10021F002090147F0A12030D20900C3090FD750B67
:10022F0001C28CD28EC2052091147F0A12030D20B9
:10023F00910C3091FD750B02C28CD28EC2052092AB
:10024F00147F0A12030D20920C3092FD750B03C21E
:10025F008CD28EC2052093147F0A12030D20930CAB
:0D026F003093FD750B04C28CD28EC20522A7
:1001B300300068E50B600E90031B93F58090032BD2
:1001C3001203078000E4F58075A001E50F75F00ABE
:1001D3001202CCFF3395E0FE741B2FF58274033EAD
:1001E300F583E493F58090032D120307E4F58075FE
:1001F300A004E50F75F00A1202CCAFF0EF3395E0DF
:10020300FE741B2FF58274033EF583E493F580900F
:0C021300032E120307E4F58075A00822FA
:10013E001202EE1202A52005047F0180027F00301C
:10014E0000047E0180027E00EE5F601A20B2177FEF
:10015E000A12030D20B20F30B2FD850C0FD28CE4C3
:10016E00F50DF50ED28E3005047F0180027F002042
:10017E0000047E0180027E00EE5F600B12021FE51E
:10018E000B6004D201C2B53005047F0180027F00EE
:10019E003000047E0180027E00EE5F600312021FBB
:0501AE001201B3808E78
:03000B0002001ED2
:10001E00C0E0C0F0C083C082C0D075D000C000C0A8
:10002E0001C002C003C004C005C006C007758CF82D
:10003E00758A30300404B2B78002D2B7C3E50F64BC
:10004E008094855017E50F75F0021202CCAFF0EFD9
:10005E007006D204C2B58004C204D2B5050EE50EF8
:10006E007002050DB4F422E50DB4011D750D007579
:10007E000E00150FC204E50FB4FF0E750F14C28CDF
:10008E00C200D205750B00D2B5D007D006D005D070
:10009E0004D003D002D001D000D0D0D082D083D0F3
:0400AE00F0D0E0327C
:03001B0002027C62
:10027C00C0E0C0D0758DF8758B30B2B70509E509B3
:10028C0070020508B4F40DE508B401087508007592
:09029C000900C28ED0D0D0E0327E
:1000BE0002013EE493A3F8E493A34003F68001F219
:1000CE0008DFF48029E493A3F85407240CC8C33343
:1000DE00C4540F4420C8834004F456800146F6DF12
:1000EE00E4800B010204081020408090000EE47E94
:1000FE00019360BCA3FF543F30E509541FFEE49307
:10010E00A360010ECF54C025E060A840B8E493A3CD
:10011E00FAE493A3F8E493A3C8C582C8CAC583CAF8
:10012E00F0A3C8C582C8CAC583CADFE9DEE780BEB0
:0100190000E6
:1002CC00C2D530F707B2D563F0FF05F030E70CB2BA
:1002DC00D5F4048463F0FF05F080018430D502F47A
:0202EC000422EA
:00000001FF
