:03000000020006F5
:0C000600787FE4F6D8FD75812502004DDE
:1000F9001010C0F9A4B0999282F880908883C6A1A3
:02010900868EE0
:10009200D2AFD2A8C288E4F524F52574102525F83C
:1000A200E6F58075A0017FE87E031200E40525E5F0
:1000B2002570020524C39410E524940040DD80D607
:1000E400D3EF9400EE9400400B7D6EDDFEEF1F70A5
:0400F400EF1E80EC8F
:0100F80022E5
:030003000200C236
:1000C200C0E0C0D075D00820B20D74102525F8E626
:1000D200F58075A00180F0752400752510D0D0D070
:0200E200E0320A
:10001200020092E493A3F8E493A34003F68001F272
:1000220008DFF48029E493A3F85407240CC8C333EF
:10003200C4540F4420C8834004F456800146F6DFBE
:10004200E4800B01020408102040809000F9E47E55
:10005200019360BCA3FF543F30E509541FFEE493B3
:10006200A360010ECF54C025E060A840B8E493A37A
:10007200FAE493A3F8E493A3C8C582C8CAC583CAA5
:10008200F0A3C8C582C8CAC583CADFE9DEE780BE5D
:01010B0000F3
:00000001FF
