:0A016300C0F9A4B0999282F88090D0
:030175000108007E
:04011F007F0A7E00D5
:10012300D3EF9400EE940040147D6E7C00ED1D70BF
:0D013300011CED4C70F7EF1F70E61E80E31D
:01014000229C
:10008F0075A002E50875F00A120141AFF0EF339544
:10009F00E0FE74632FF58274013EF583E493F580DF
:1000AF007F057E0012012375A001E50875F00A1285
:1000BF000141FF3395E0FE74632FF58274013EF525
:0C00CF0083E493F5807F057E000201238E
:1000DB0020901712011F20900E0508C3E5086480BD
:1000EB0094E44003E4F5083090FD20911712011FB2
:1000FB0020910E1508D3E508648094805003750891
:10010B00633091FD20920C12011F209203E4F5083D
:04011B003092FD22FF
:08016D001200DB12008F80F884
:03000000020003F8
:0C000300787FE4F6D8FD75810802004A01
:10014100C2D530F707B2D563F0FF05F030E70CB246
:10015100D5F4048463F0FF05F080018430D502F406
:02016100042276
:10000F0002016DE493A3F8E493A34003F68001F299
:10001F0008DFF48029E493A3F85407240CC8C333F2
:10002F00C4540F4420C8834004F456800146F6DFC1
:10003F00E4800B0102040810204080900175E47EDB
:10004F00019360BCA3FF543F30E509541FFEE493B6
:10005F00A360010ECF54C025E060A840B8E493A37D
:10006F00FAE493A3F8E493A3C8C582C8CAC583CAA8
:10007F00F0A3C8C582C8CAC583CADFE9DEE780BE60
:010178000086
:00000001FF
