:10006A005A68656A69616E672051697520536869C3
:10007A00004A69616F2058756520596920516900E5
:10000300120045E4F508C3E5089410748094805009
:100013000EE50890006A93FF1200A9050880E77FA8
:10002300C012008AE4F508C3E508940E7480948036
:10003300500EE50890007B93FF1200A9050880E7A6
:0200430080FE3D
:10004500C2917F3812008A7F051200C87F0C12000A
:100055008A7F051200C87F0612008A7F051200C834
:050065007F0102008A8A
:10008A008F09C290D2927F0A1200C8C29285098053
:0F009A007F051200C8D2907F051200C8C29022C5
:1000A9008F09C290C2927F0A1200C8D29285098034
:0F00B9007F051200C8D2907F051200C8C29022A6
:1000C800EFD394007480948040127E6EEED3940037
:0C00D8007480948040031E80F31F80E4BD
:0100E40022F9
:030000000200E516
:0C00E500787FE4F6D8FD75810902000365
:00000001FF
